{
    "contractName": "BuyMeAChai",
    "abi": [
        {
            "inputs": [],
            "stateMutability": "nonpayable",
            "type": "constructor"
        },
        {
            "anonymous": false,
            "inputs": [
                {
                    "indexed": true,
                    "internalType": "address",
                    "name": "from",
                    "type": "address"
                },
                {
                    "indexed": false,
                    "internalType": "uint256",
                    "name": "timestamp",
                    "type": "uint256"
                },
                {
                    "indexed": false,
                    "internalType": "string",
                    "name": "name",
                    "type": "string"
                },
                {
                    "indexed": false,
                    "internalType": "string",
                    "name": "message",
                    "type": "string"
                }
            ],
            "name": "NewMemo",
            "type": "event"
        },
        {
            "inputs": [
                {
                    "internalType": "string",
                    "name": "_name",
                    "type": "string"
                },
                {
                    "internalType": "string",
                    "name": "_message",
                    "type": "string"
                }
            ],
            "name": "buyChai",
            "outputs": [],
            "stateMutability": "payable",
            "type": "function"
        },
        {
            "inputs": [],
            "name": "getMemos",
            "outputs": [
                {
                    "components": [
                        {
                            "internalType": "address",
                            "name": "from",
                            "type": "address"
                        },
                        {
                            "internalType": "uint256",
                            "name": "timestamp",
                            "type": "uint256"
                        },
                        {
                            "internalType": "string",
                            "name": "name",
                            "type": "string"
                        },
                        {
                            "internalType": "string",
                            "name": "message",
                            "type": "string"
                        }
                    ],
                    "internalType": "struct BuyMeAChai.Memo[]",
                    "name": "",
                    "type": "tuple[]"
                }
            ],
            "stateMutability": "view",
            "type": "function"
        },
        {
            "inputs": [],
            "name": "withdrawTips",
            "outputs": [],
            "stateMutability": "nonpayable",
            "type": "function"
        }
    ],
    "bytecode": "608060405234801561001057600080fd5b50600080546001600160a01b03191633179055610795806100326000396000f3fe6080604052600436106100345760003560e01c80633aaa74b2146100395780636a13d85914610050578063865c517214610063575b600080fd5b34801561004557600080fd5b5061004e61008e565b005b61004e61005e366004610490565b6100c2565b34801561006f57600080fd5b5061007861024a565b604051610085919061053a565b60405180910390f35b600080546040516001600160a01b03909116914780156108fc02929091818181858888f193505050506100c057600080fd5b565b600034116101165760405162461bcd60e51b815260206004820152601860248201527f63616e277420627579206368616920666f722066726565210000000000000000604482015260640160405180910390fd5b6040805160808101825233815242602082019081529181018481526060820184905260018054808201825560009190915282517fb10e2d527612073b26eecdfd717e6a320cf44b4afac2b0732d9fcbe2b7fa0cf6600490920291820180546001600160a01b0319166001600160a01b0390921691909117815593517fb10e2d527612073b26eecdfd717e6a320cf44b4afac2b0732d9fcbe2b7fa0cf782015590519192917fb10e2d527612073b26eecdfd717e6a320cf44b4afac2b0732d9fcbe2b7fa0cf8909101906101e9908261066a565b50606082015160038201906101fe908261066a565b505050336001600160a01b03167fc56140e05f516509ae28110e0f72e17558a7561630dad2647c3ae87d986e365c42848460405161023e9392919061072a565b60405180910390a25050565b60606001805480602002602001604051908101604052809291908181526020016000905b828210156103e4576000848152602090819020604080516080810182526004860290920180546001600160a01b03168352600181015493830193909352600283018054929392918401916102c1906105e1565b80601f01602080910402602001604051908101604052809291908181526020018280546102ed906105e1565b801561033a5780601f1061030f5761010080835404028352916020019161033a565b820191906000526020600020905b81548152906001019060200180831161031d57829003601f168201915b50505050508152602001600382018054610353906105e1565b80601f016020809104026020016040519081016040528092919081815260200182805461037f906105e1565b80156103cc5780601f106103a1576101008083540402835291602001916103cc565b820191906000526020600020905b8154815290600101906020018083116103af57829003601f168201915b5050505050815250508152602001906001019061026e565b50505050905090565b634e487b7160e01b600052604160045260246000fd5b600082601f83011261041457600080fd5b813567ffffffffffffffff8082111561042f5761042f6103ed565b604051601f8301601f19908116603f01168101908282118183101715610457576104576103ed565b8160405283815286602085880101111561047057600080fd5b836020870160208301376000602085830101528094505050505092915050565b600080604083850312156104a357600080fd5b823567ffffffffffffffff808211156104bb57600080fd5b6104c786838701610403565b935060208501359150808211156104dd57600080fd5b506104ea85828601610403565b9150509250929050565b6000815180845260005b8181101561051a576020818501810151868301820152016104fe565b506000602082860101526020601f19601f83011685010191505092915050565b60006020808301818452808551808352604092508286019150828160051b87010184880160005b838110156105d357888303603f19018552815180516001600160a01b031684528781015188850152868101516080888601819052906105a2828701826104f4565b915050606080830151925085820381870152506105bf81836104f4565b968901969450505090860190600101610561565b509098975050505050505050565b600181811c908216806105f557607f821691505b60208210810361061557634e487b7160e01b600052602260045260246000fd5b50919050565b601f82111561066557600081815260208120601f850160051c810160208610156106425750805b601f850160051c820191505b818110156106615782815560010161064e565b5050505b505050565b815167ffffffffffffffff811115610684576106846103ed565b6106988161069284546105e1565b8461061b565b602080601f8311600181146106cd57600084156106b55750858301515b600019600386901b1c1916600185901b178555610661565b600085815260208120601f198616915b828110156106fc578886015182559484019460019091019084016106dd565b508582101561071a5787850151600019600388901b60f8161c191681555b5050505050600190811b01905550565b83815260606020820152600061074360608301856104f4565b828103604084015261075581856104f4565b969550505050505056fea2646970667358221220be05a290efd18d573f71516a639a205f0a4b47a8c23beee43702fc925a04dae664736f6c63430008130033",
    "sourcePath": "/Users/asim.khan/Desktop/opensource/dapp-buy-me-chai/contracts/BuyMeAChai.sol",
    "compiler": {
        "name": "solc",
        "version": "0.8.19+commit.7dd6d404"
    },
    "functionHashes": {
        "buyChai(string,string)": "6a13d859",
        "getMemos()": "865c5172",
        "withdrawTips()": "3aaa74b2"
    },
    "gasEstimates": {
        "creation": {
            "codeDepositCost": "388200",
            "executionCost": "24659",
            "totalCost": "412859"
        },
        "external": {
            "buyChai(string,string)": "infinite",
            "getMemos()": "infinite",
            "withdrawTips()": "infinite"
        }
    }
}